{
  "_format": "hh-sol-artifact-1",
  "contractName": "Splitwise",
  "sourceName": "contracts/mycontract.sol",
  "abi": [
    {
      "inputs": [
        {
          "internalType": "address",
          "name": "",
          "type": "address"
        },
        {
          "internalType": "address",
          "name": "",
          "type": "address"
        }
      ],
      "name": "IOUS",
      "outputs": [
        {
          "internalType": "uint32",
          "name": "",
          "type": "uint32"
        }
      ],
      "stateMutability": "view",
      "type": "function"
    },
    {
      "inputs": [
        {
          "internalType": "address",
          "name": "creditor",
          "type": "address"
        },
        {
          "internalType": "uint32",
          "name": "amount",
          "type": "uint32"
        }
      ],
      "name": "add_IOU",
      "outputs": [],
      "stateMutability": "nonpayable",
      "type": "function"
    },
    {
      "inputs": [
        {
          "internalType": "address",
          "name": "debtor",
          "type": "address"
        },
        {
          "internalType": "address",
          "name": "creditor",
          "type": "address"
        }
      ],
      "name": "lookup",
      "outputs": [
        {
          "internalType": "uint32",
          "name": "ret",
          "type": "uint32"
        }
      ],
      "stateMutability": "view",
      "type": "function"
    },
    {
      "inputs": [
        {
          "internalType": "address",
          "name": "debter",
          "type": "address"
        },
        {
          "internalType": "uint32",
          "name": "amount",
          "type": "uint32"
        }
      ],
      "name": "settle_up",
      "outputs": [],
      "stateMutability": "nonpayable",
      "type": "function"
    }
  ],
  "bytecode": "0x608060405234801561001057600080fd5b506108a4806100206000396000f3fe608060405234801561001057600080fd5b506004361061004c5760003560e01c8063713584a61461005157806377756d5b1461008157806388441d511461009d578063d12099e4146100cd575b600080fd5b61006b6004803603810190610066919061066c565b6100e9565b60405161007891906106cb565b60405180910390f35b61009b60048036038101906100969190610712565b61017f565b005b6100b760048036038101906100b2919061066c565b6103ab565b6040516100c491906106cb565b60405180910390f35b6100e760048036038101906100e29190610712565b6103dd565b005b60008060008473ffffffffffffffffffffffffffffffffffffffff1673ffffffffffffffffffffffffffffffffffffffff16815260200190815260200160002060008373ffffffffffffffffffffffffffffffffffffffff1673ffffffffffffffffffffffffffffffffffffffff16815260200190815260200160002060009054906101000a900463ffffffff16905092915050565b6000808373ffffffffffffffffffffffffffffffffffffffff1673ffffffffffffffffffffffffffffffffffffffff16815260200190815260200160002060003373ffffffffffffffffffffffffffffffffffffffff1673ffffffffffffffffffffffffffffffffffffffff16815260200190815260200160002060009054906101000a900463ffffffff1663ffffffff16816000808573ffffffffffffffffffffffffffffffffffffffff1673ffffffffffffffffffffffffffffffffffffffff16815260200190815260200160002060003373ffffffffffffffffffffffffffffffffffffffff1673ffffffffffffffffffffffffffffffffffffffff16815260200190815260200160002060009054906101000a900463ffffffff166102a89190610781565b63ffffffff1611156102ef576040517f08c379a00000000000000000000000000000000000000000000000000000000081526004016102e690610816565b60405180910390fd5b806000808473ffffffffffffffffffffffffffffffffffffffff1673ffffffffffffffffffffffffffffffffffffffff16815260200190815260200160002060003373ffffffffffffffffffffffffffffffffffffffff1673ffffffffffffffffffffffffffffffffffffffff16815260200190815260200160002060008282829054906101000a900463ffffffff166103899190610781565b92506101000a81548163ffffffff021916908363ffffffff1602179055505050565b60006020528160005260406000206020528060005260406000206000915091509054906101000a900463ffffffff1681565b6000803373ffffffffffffffffffffffffffffffffffffffff1673ffffffffffffffffffffffffffffffffffffffff16815260200190815260200160002060008373ffffffffffffffffffffffffffffffffffffffff1673ffffffffffffffffffffffffffffffffffffffff16815260200190815260200160002060009054906101000a900463ffffffff1663ffffffff16816000803373ffffffffffffffffffffffffffffffffffffffff1673ffffffffffffffffffffffffffffffffffffffff16815260200190815260200160002060008573ffffffffffffffffffffffffffffffffffffffff1673ffffffffffffffffffffffffffffffffffffffff16815260200190815260200160002060009054906101000a900463ffffffff166105069190610836565b63ffffffff16101561054d576040517f08c379a000000000000000000000000000000000000000000000000000000000815260040161054490610816565b60405180910390fd5b806000803373ffffffffffffffffffffffffffffffffffffffff1673ffffffffffffffffffffffffffffffffffffffff16815260200190815260200160002060008473ffffffffffffffffffffffffffffffffffffffff1673ffffffffffffffffffffffffffffffffffffffff16815260200190815260200160002060008282829054906101000a900463ffffffff166105e79190610836565b92506101000a81548163ffffffff021916908363ffffffff1602179055505050565b600080fd5b600073ffffffffffffffffffffffffffffffffffffffff82169050919050565b60006106398261060e565b9050919050565b6106498161062e565b811461065457600080fd5b50565b60008135905061066681610640565b92915050565b6000806040838503121561068357610682610609565b5b600061069185828601610657565b92505060206106a285828601610657565b9150509250929050565b600063ffffffff82169050919050565b6106c5816106ac565b82525050565b60006020820190506106e060008301846106bc565b92915050565b6106ef816106ac565b81146106fa57600080fd5b50565b60008135905061070c816106e6565b92915050565b6000806040838503121561072957610728610609565b5b600061073785828601610657565b9250506020610748858286016106fd565b9150509250929050565b7f4e487b7100000000000000000000000000000000000000000000000000000000600052601160045260246000fd5b600061078c826106ac565b9150610797836106ac565b9250828203905063ffffffff8111156107b3576107b2610752565b5b92915050565b600082825260208201905092915050565b7f6e656720616d6f756e7400000000000000000000000000000000000000000000600082015250565b6000610800600a836107b9565b915061080b826107ca565b602082019050919050565b6000602082019050818103600083015261082f816107f3565b9050919050565b6000610841826106ac565b915061084c836106ac565b9250828201905063ffffffff81111561086857610867610752565b5b9291505056fea26469706673582212200506caa25af03c1575eeb926c6e6e9b734cec9adb2c9e7f0f13ca8420322ecaa64736f6c63430008110033",
  "linkReferences": {},
  "deployedLinkReferences": {}
}